:020000040800F2
:100000005011002031020008A9120008270C000836
:10001000AD0C000809080008B11E0008000000002F
:10002000000000000000000000000000C5140008EF
:100030004108000800000000391300081D160008E0
:100040004B0200084B0200084B0200084B0200085C
:100050004B0200084B020008450800084B0200084C
:10006000B9080008050900084B0200084B02000807
:100070004B0200084B0200084B0200084B0200082C
:100080004B0200084B0200084B0200084B0200081C
:100090004B0200084B0200084B0200084B0200080C
:1000A0004B0200084B0200084B0200084B020008FC
:1000B0004B020008891600084B0200084B0200089A
:1000C0004B0200084B0200084B0200084B020008DC
:1000D0004B020008F91800084B02000881190008BB
:1000E0004B0200084B0200084B0200084B020008BC
:1000F0004B0200084B0200084B0200084B020008AC
:100100004B0200084B020008591700084B02000878
:100110004B0200084B0200084B0200088D17000834
:100120004B0200084B0200084B0200084B0200087B
:100130004B0200084B0200084B0200084B0200086B
:100140004B0200084B0200084B0200084B0200085B
:100150004B0200084B0200084B0200084B0200084B
:100160004B0200084B0200084B0200084B0200083B
:100170004B0200084B0200084B0200084B0200082B
:100180004B0200084B02000800F002F800F041F8B2
:100190000AA090E8000C82448344AAF10107DA45E2
:1001A00001D100F036F8AFF2090EBAE80F0013F0F3
:1001B000010F18BFFB1A43F0010318470823000082
:1001C00028230000103A24BF78C878C1FAD8520713
:1001D00024BF30C830C144BF04680C6070470000C1
:1001E0000023002400250026103A28BF78C1FBD840
:1001F000520728BF30C148BF0B607047732900F019
:100200007381002070471FB502F04EF91FBD10B575
:1002100010BD00F083F91146FFF7F5FF01F0E8FE8D
:1002200000F0A1F903B4FFF7F2FF03BC01F049FEAF
:100230000948804709480047FEE7FEE7FEE7FEE77A
:10024000FEE7FEE7FEE7FEE7FEE7FEE704480549B6
:10025000054A064B70470000211600088901000876
:10026000500B002050110020500D0020500D002098
:10027000704700000FB4044910B503AA029800F0BB
:1002800037F910BC5DF814FB1000002070B50C4667
:100290000546012A05D02878800600D5EA690023A2
:1002A00002E0012305E05B1C934202D2E05C0028DF
:1002B000F9D1A869E618C01AA861286A184428620A
:1002C0002846AFF3008004E0D5E9012114F8010BC2
:1002D0009047B442F8D32846AFF3008070BD0000C9
:1002E0002DE9F05F894604464FF0000ADFF874B14B
:1002F000FB44C0F820A02046E1688847002874D05D
:10030000252806D0D4E901219047206A401C2062AC
:10031000F1E700265F462046E16888472028054629
:1003200007DB312D05D2781910F8200C08B10643EF
:10033000F1E7B00701D526F00406C4F81CA0002799
:10034000C4F818A02A2D09D0284601F0B3FD38B30F
:1003500004EB8708303DC8F8185019E059F8041B21
:10036000204604EB87029161E1688847012F05462A
:1003700018D1E069002820DA26F020061DE0D8F820
:10038000180000EB800005EB40003038C8F818007A
:100390002046E1688847054601F08CFD0028EED133
:1003A000012F0AD02E2D08D12046E16888477F1CF6
:1003B0000546022F46F02006C4DBA069002803DAB8
:1003C000404246F00106A061F00701D026F0100679
:1003D0006C2D0BD0682D09D04C2D39D06A2D35D01D
:1003E000742D35D07A2D33D016E038E0E1682F46F1
:1003F00020468847B842054609D16C2F26D04FF4D5
:100400008060E168064320468847054604E06C2F7B
:100410001AD04FF4807006430DB3A5F1410019289E
:1004200002D8203546F400664A4629462046266012
:100430004E46FFF7E3FE80B101280BD0F61D26F0F3
:10044000070000F1080956E74020E4E78020D8E7DC
:100450000020D6E706F104094DE7284652E7206A56
:10046000BDE8F09FBE21000030B505460B462A4688
:1004700013F8014B12F8010B08B1A042F8D01CB1DF
:10048000002802D06D1CF1E7284630BD7047704748
:100490007047704701694A1C02610878704700B5CF
:1004A0008FB0CDE901310021059105497944CDE9AD
:1004B000031011466846FFF713FF0FB000BD0000A0
:1004C000E5FFFFFF10B5436913B1AFF3008001E012
:1004D000FFF7DCFE012010BD127800F124010A7044
:1004E00000224A700122EDE711684FF0FF32E9E780
:1004F000074B70B50D467B44FFF7D1FF04462846F5
:1005000000F008F810B14FF0FF3070BD204670BD0C
:10051000DB1A0000007B00F080007047754600F099
:100520002BF8AE4605006946534620F00700854685
:1005300018B020B5FFF78AFEBDE820404FF0000656
:100540004FF000074FF000084FF0000B21F00701BB
:10055000AC46ACE8C009ACE8C009ACE8C009ACE8FE
:10056000C0098D46704710B50446AFF300802046A1
:10057000BDE81040FFF756BE00487047F00A002063
:1005800021B1826842F00102826003E0826822F0B9
:1005900001028260704700000021084A1168084A81
:1005A0001140D0E900231A4383681A43C3681A43F1
:1005B0001143044AC2F804137047000004230140A9
:1005C000E030FCFF002001400146C86C80B270475B
:1005D0000246002013680B400BB1012000E0002010
:1005E0007047000030B50246002000235068104CD0
:1005F00020400D790C6844EA05242043506090683F
:100600000C4C2040D1E903542C438D682C434D7988
:1006100044EA450420439060D06A20F470000C7DC9
:10062000641EE4B2234340EA0350D06230BD0000B0
:10063000FFFEFFFCFDF7FFC0F0B504460D460020AD
:100640000021092D11DDE068A5F10A0606EB460739
:10065000072606FA07F18843A5F10A0606EB4606C7
:1006600003FA06F10843E0600CE0206905EB45075A
:10067000072606FA07F1884305EB450603FA06F15B
:1006800008432061072A0FDA606B561E06EB8607C7
:100690001F2606FA07F18843561E06EB860605FA62
:1006A00006F10843606322E00D2A0FDA206BD61FA3
:1006B00006EB86071F2606FA07F18843D61F06EBCE
:1006C000860605FA06F10843206310E0E06AA2F10D
:1006D0000D0606EB86071F2606FA07F18843A2F1EE
:1006E0000D0606EB860605FA06F10843E062F0BD4A
:1006F000816841F080418160704710B501F050FD84
:1007000040F6C41001F01AFC01F060FD40F6C41080
:1007100001F014FC01F070FD40F6C41001F00EFC75
:1007200001F080FD40F6C41001F008FC10BD00008F
:1007300000B58DB00121084600F000FE012108023D
:1007400000F02CFE20200B9003208DF830000020BC
:100750008DF833000BA9154800F0A6F90121080215
:1007600000F02CFE00214FF4807000F027FE0020E6
:1007700007900A9009904FF48030089007A8FFF77F
:100780000BFF002001908DF808008DF80900039000
:10079000059001208DF8180001A90548FFF722FFF8
:1007A00001210348FFF7ECFE0DB000BD0000024040
:1007B000002001401CB50121282000F0BFFDC02011
:1007C000009001208DF8040000208DF80600032021
:1007D0008DF8050001208DF807006946084800F0F3
:1007E00063F9602000906946064800F05DF9C02179
:1007F000034800F0CDF96021024800F0C9F91CBDA2
:10080000000C02400010024000BFFEE710B501F0EE
:1008100009FD40F6C41001F091FB01F0EDFC40F63B
:10082000C41001F08BFB01F0D1FC40F6C41001F0C4
:1008300085FB01F0B5FC40F6C41001F07FFB10BD54
:100840007047000010B50A2001F05CFB01210F4841
:1008500000F095F9012815D10D48007808B901205C
:1008600000E000200A49087008460078094908702D
:100870000748007818B108A0FFF7FCFC02E00AA0C6
:10088000FFF7F8FC012000F0BFF810BD00000240A7
:1008900002000020050000206D6F746F72207374D9
:1008A0006172740D0A0000006D6F746F72207374B2
:1008B0006F700D0A0000000010B50A2001F022FB45
:1008C00004210B4800F05BF970B901200949087058
:1008D0000020094908700748007808490870064850
:1008E00000780749087000BF042000F08DF810BDA3
:1008F0000010024003000020040000200600002039
:100900000700002010B50A2001F0FCFA08210B486E
:1009100000F035F970B90020094908700120094933
:1009200008700748007808490870064800780749A9
:10093000087000BF082000F067F810BD00100240EA
:100940000300002004000020060000200700002013
:100950000EB500F06BF90121880300F01FFD0221A4
:10096000042000F0B1FD0321042000F0ADFD0021C2
:10097000084600F0A9FD0120009000208DF8040039
:1009800008208DF8050001208DF80600684600F06B
:1009900041F80C20009000208DF804000C208DF808
:1009A000050001208DF80600684600F033F80620A7
:1009B0008DF8080000208DF8090002208DF80A004B
:1009C00001208DF80B0002A800F070FC08208DF8C3
:1009D000080003208DF8090002208DF80A0001208C
:1009E0008DF80B0002A800F061FC09208DF80800CA
:1009F00002208DF809008DF80A0001208DF80B0007
:100A000002A800F053FC0EBD0149086070470000C9
:100A1000143C0140002123498279002A3AD00A4639
:100A2000126803689A430B461A600A1D126803682D
:100A30009A430B1D1A60027911440A6803681A432D
:100A40000A60184A0832126803689A43154B083343
:100A50001A601A1D126803689A43124B0C331A600D
:100A60004279102A0ED11A1F126803681A430D4BDF
:100A700008331A601A1D126803681A43094B0C33B5
:100A80001A600DE00749427911440A6803681A4365
:100A90000A6005E0027911440A6803689A430A6013
:100AA00070470000003C0140F0B50A4600210023D9
:100AB000002400BF3DE0012505FA01F3156805EAB1
:100AC00003049C4234D105684F000326BE40B54361
:100AD000056015794E00B540066835430560157907
:100AE000012D02D01579022D16D185684F000326FD
:100AF000BE40B543856055794E00B54086683543A4
:100B00008560456801268E40B54345604568967905
:100B10008E40B6B235434560C5684F000326BE40DF
:100B2000B543C560D5794E00B540C6683543C5604C
:100B3000491C1029BFD3F0BDF0B5002300244D0798
:100B4000ED0E02FA05F3CE1000F1200555F82650FF
:100B50004E07F70E0F26BE40B543CF1000F120061A
:100B600046F82750CE1000F1200555F8265045EAEA
:100B70000304CE1000F1200545F82640F0BD0246E2
:100B8000002013690B400BB1012000E000207047EA
:100B9000418370470183704770B504460D4629466E
:100BA000204600F02FF92946204600F09BF8294600
:100BB000204600F0CBF82946204600F0B9F9294636
:100BC000204600F0C5FA70BD10B504460723012287
:100BD00021460848FFF730FD0648FFF789FD00BFB2
:100BE00002210448FFF7F4FC0028F9D00148FFF780
:100BF000EBFC10BD002001402DE9F04107460C46FA
:100C00000025002608E03846FFF7DEFF05440520F2
:100C100001F078F9701CC6B2A642F4DBB5FBF4F023
:100C200080B2BDE8F08100BFFEE700001CB50121E5
:100C3000112000F083FB0C20009000208DF80400B0
:100C400003208DF8050001208DF80700694606484D
:100C5000FFF72AFF0120009002208DF80700694667
:100C60000248FFF721FF1CBD0010024000000240B7
:100C70001CB50121084600F061FB02200090012014
:100C80008DF8040000208DF8060003208DF8050083
:100C900001208DF8070069460348FFF705FF022190
:100CA0000148FFF777FF1CBD0000024000BFFEE7D0
:100CB0000246134610E010782A2805D01078202824
:100CC00002DB10787A2801DDFF20704710782C288D
:100CD00001D1481EC1B2521C0029ECD1D01AC0B2B9
:100CE000F3E70000F8B505460F4616A13846FFF7B2
:100CF000BBFB064606213046FFF7DAFF0446FF2C11
:100D000005D03019694600F05AFA85F84E000721DF
:100D10003046FFF7CDFF0446FF2C05D03019694659
:100D200000F04DFA85F84F0009213046FFF7C0FF6B
:100D30000446FF2C05D03019694600F040FAC5F88A
:100D40006300F8BD24475047474100002DE9F843B0
:100D50000546884629A14046FFF786FB0646022144
:100D60003046FFF7A5FF0446FF2C05D03019694631
:100D700000F025FA85F85C00002713E0F81CC1B2EA
:100D80003046FFF795FF0446FF2C08D0301969461E
:100D900000F015FAC1B205F15000C15500E003E0C2
:100DA000781CC7B20C2FE9DB00BF0F213046FFF7DC
:100DB0007FFF0446FF2C05D03019694600F0FFF98B
:100DC000A5F85D0010213046FFF772FF0446FF2CA6
:100DD00005D03019694600F0F2F9A5F85F0011213D
:100DE0003046FFF765FF0446FF2C05D030196946F1
:100DF00000F0E5F9A5F86100BDE8F8832447504705
:100E0000534100002DE9FC5F07468A464FF0000879
:100E1000CDF804A044A10198FFF726FB0646F0791F
:100E2000303800F0FF0B03213046FFF741FF054645
:100E3000FF2D04D07019694600F0C1F938704FF0E9
:100E400000096CE038A10198FFF70EFB064600246C
:100E50005CE0042000EB8400C1B23046FFF728FFBD
:100E60000546FF2D09D07019694600F0A8F9C1B2F6
:100E700008EB8802781C815400E049E0052000EB73
:100E80008400C1B23046FFF713FF0546FF2D0AD09C
:100E90007019694600F093F9C1B208EB8802781C1A
:100EA0001044417000E033E0062000EB8400C1B242
:100EB0003046FFF7FDFE0546FF2D0AD07019694642
:100EC00000F07DF981B208EB8802781C1044418063
:100ED00000E01DE0072000EB8400C1B23046FFF7C0
:100EE000E7FE0546FF2D0AD07019694600F067F944
:100EF000C1B208EB8802781C1044017100E007E0E1
:100F000008F1010000F0FF08601CC4B2042CA0DB53
:100F100000BF701C019009F1010000F0FF09D945E4
:100F200090DBBDE8FC9F000024475047535600006B
:100F30002DE9F0432DED028B81B00446884681A156
:100F40004046FFF791FA074601213846FFF7B0FE09
:100F50000546FF2D23D07819694600F030F9814607
:100F60009DF800100A2000F01FF9B9FBF0F642F2DC
:100F70001070B6FBF0F0C1B2412001556420B6FB01
:100F8000F0F06421B0FBF1F201FB120142200155A7
:100F90006420B6FBF0F100FB1161432001550321F1
:100FA0003846FFF785FE0546FF2D40D07819694683
:100FB00000F005F906469DF80000801CC1B20A2029
:100FC00000F0F2F8B6FBF0F060649DF80000801CC1
:100FD000C1B20A2000F0E8F8B6FBF0F100FB1160A6
:100FE00000EE100AB8EE408A05210A2000F0DCF875
:100FF000616C484300EE100AF8EE400A9DF80000CC
:10100000C0F10500C1B20A2000F0CEF800EE100ACF
:10101000B8EE400A20EE080A9FED4C1AC0EE011A05
:1010200030EEA10ABCEEC00A10EE100A6064042182
:101030003846FFF73DFE0546FF2D02D0785D84F867
:10104000480005213846FFF733FE0546FF2D44D002
:101050007819694600F0B3F806469DF80000801C38
:10106000C1B20A2000F0A0F8B6FBF0F044F8490F36
:101070009DF80000801CC1B20A2000F095F8B6FB74
:10108000F0F100FB116000EE100AB8EE400AB0EE7D
:10109000408A05210A2000F087F82168484300EEC5
:1010A000100AF8EE400A9DF80000C0F10500C1B238
:1010B0000A2000F079F800EE100AB8EE400A20EE9F
:1010C000080A9FED221AC0EE011A30EEA10ABCEE0A
:1010D000C00A10EE100A44F8490906213846FFF705
:1010E000E7FD0546FF2D02D0785D84F84D0009210B
:1010F0003846FFF7DDFD0546FF2D1ED078196946FD
:1011000000F05DF8064642F21070B6FBF0F0C1B296
:10111000402001556420B6FBF0F06421B0FBF1F2F1
:1011200001FB12013F2001556420B6FBF0F100FBEA
:10113000116000F5FA60A4F83D0001B0BDEC028B2F
:10114000BDE8F0834750524D43000000000070425C
:10115000F8B504460D4612A12846FFF785F9064664
:1011600007213046FFF7A4FD0746FF2F16D0F019E0
:10117000694600F024F8A4F867009DF800000328F1
:101180000CDA9DF80000C0F10300C1B20A2000F0A3
:101190000BF8B4F867104843A4F86700F8BD0000E6
:1011A000244750565447000010B50246012000E085
:1011B00050430B1EA1F10104E1B2F9D110BD2DE99C
:1011C000F34F81B007463C4600200090834681469D
:1011D0000026804628E020782D2802D148F0020819
:1011E000641C20782C2802D020782A2800D11CE00A
:1011F00020782E2803D148F00108641C09E02078EB
:10120000392802DC2078302803DA4FF00009002664
:101210000BE008F0010010B1701CC6B203E009F148
:10122000010000F0FF09641CD5E700BF08F00200D0
:1012300000B17F1C00250EE0A9F10100401BC1B2E6
:101240000A20FFF7B1FF795D3039009A00FB0120D9
:101250000090681CC5B24D45EEDB052E00DD05266D
:101260000298067000250EE0701E401BC1B20A20D5
:10127000FFF79AFF09F101012944795C303900FB3D
:1012800001BB681CC5B2B542EEDB31460A20FFF750
:101290008BFF009901FB00BA08F0020008B1CAF107
:1012A000000A5046BDE8FE8F7047000070B500216F
:1012B00000230F22C4781CB3174C246804F4E064A4
:1012C000C4F5E064C4F30721C1F10404E3B20A41A8
:1012D00044789C40E1B28478144021430C07210EED
:1012E0000E4C05786155047804F01F050124AC40CC
:1012F00005786D11AD0005F1E025C5F8004109E064
:10130000047804F01F050124AC40054D06787611E1
:1013100045F8264070BD00000CED00E000E400E060
:1013200080E100E002490143024A11607047000079
:101330000000FA050CED00E07047000029B1064AF4
:1013400012680243044B1A6004E0034A12688243A5
:10135000014B1A60704700003038024029B1064A3C
:1013600012680243044B1A6004E0034A1268824385
:10137000014B1A60704700004038024029B1064A0C
:1013800012680243044B1A6004E0034A1268824365
:10139000014B1A60704700002038024029B1064A0C
:1013A00012680243044B1A6004E0034A1268824345
:1013B000014B1A60704700004438024029B1064AC8
:1013C00012680243044B1A6004E0034A1268824325
:1013D000014B1A607047000024380240F0B500212C
:1013E00000220024022500260223324F3F6807F026
:1013F0000C0121B1042905D0082937D105E02E4F71
:10140000076036E02D4F076033E02A4F3F1F3F68EB
:10141000C7F38056274F3F1F3F6807F03F036EB169
:10142000264FB7FBF3F7DFF88CC0ACF1040CDCF807
:1014300000C0CCF3881C07FB0CF40CE01E4FB7FB7C
:10144000F3F7DFF870C0ACF1040CDCF800C0CCF3AB
:10145000881C07FB0CF4174F3F1F3F68C7F3014779
:101460007F1C7D00B4FBF5F7076002E0124F0760B8
:1014700000BF00BF0F4F3F6807F0F0010909104F90
:101480007A5C0768D74047600A4F3F6807F4E0512D
:10149000890A0B4F7A5C4768D7408760054F3F68E1
:1014A00007F46041490B064F7A5C4768D740C76034
:1014B000F0BD0000083802400024F40000127A0059
:1014C000160000207047000030B500228B071C0F6B
:1014D0000F2303FA04F20B4B8C1053F82430934380
:1014E000084C8D1044F8253023468C1053F82430D6
:1014F0008C07240F00FA04F42343024C8D1044F8A7
:10150000253030BD083801400CB500200190009016
:101510003448006840F480303249086000BF3148E8
:10152000006800F4003000900198401C0190009881
:1015300018B90198B0F5A04FF1D12A48006800F41D
:10154000003010B10120009001E0002000900098D0
:10155000012846D123484030006840F0805021499E
:10156000403108602048006840F440401E4908604F
:101570001C48083000681B490831086008460068AC
:1015800040F4004008600846006840F4A05008603D
:101590001648091F0860081F006840F08070091F86
:1015A000086000BF0F48006800F000700028F9D004
:1015B00040F205700E4908600A480830006820F0C3
:1015C00003000849083108600846006840F002003E
:1015D000086000BF03480830006800F00C000828CD
:1015E000F8D10CBD0038024000700040085440079C
:1015F000003C0240042808D14FF0E021096941F085
:1016000004014FF0E022116107E04FF0E021096989
:1016100021F004014FF0E022116170477047000093
:1016200010B51548006840F470001349086013486D
:10163000006840F001001149086000200F4908319E
:1016400008600E4800680E4908400C4908600D48C3
:10165000091D0860081F006820F48020091F086029
:10166000002006490C310860FFF74EFF4FF0006084
:1016700001498039086010BD88ED00E00038024063
:10168000FFFFF6FE1030002410B50121144800F0D1
:10169000D4F801281ED11348006808B9012000E0E1
:1016A0000020104908601048007840B10F480078C9
:1016B00028B10F48007810B1FFF7A8F80AE00A48EF
:1016C000007838B10B48007820B10B48007808B199
:1016D000FFF713F80121024800F0A0F810BD000048
:1016E0000004004084024042050000200600002063
:1016F0000000002007000020010000207FB5054603
:101700000C4601210220FFF729FE0295ADF80440A6
:101710000020ADF80600ADF80C0001A90D4800F05E
:10172000A9F8012211460B4800F098F80121094858
:1017300000F077F81D208DF8000001208DF80100E1
:1017400003208DF8020001208DF803006846FFF7A2
:10175000ADFD7FBD0004004010B50121094800F037
:101760006CF868B10848008840F4004006490880D9
:101770000121044800F052F80021024800F051F81D
:1017800010BD0000000C00400A00002010B501212F
:10179000094800F052F868B10848008840F4004059
:1017A000064908800121044800F038F80021024869
:1017B00000F037F810BD00000014004008000020C1
:1017C0007FB505460C4601212020FFF7C7FD019596
:1017D000ADF800400020ADF80800ADF80200694601
:1017E0000D4800F047F8012211460B4800F036F88A
:1017F0000121094800F015F837208DF80C00002071
:101800008DF80D0002208DF80E0001208DF80F00DC
:1018100003A8FFF74BFD7FBD00140040CA430282BE
:10182000704721B1028842F00102028004E0028880
:101830004FF6FE731A400280704730B50246002012
:1018400000230024158A05EA0103958905EA0104AD
:1018500013B10CB1012000E0002030BD1AB1838922
:101860000B43838102E083898B438381704741620C
:101870007047000000220288184B98420ED0184B87
:1018800098420BD0B0F1804F08D0164B984205D04B
:10189000154B984202D0154B984204D14FF68F73E6
:1018A0001A404B881A43124B984207D0114B98426A
:1018B00004D04FF6FF431A400B891A4302804B684D
:1018C000C3620B880385054B984202D0044B9842B3
:1018D00001D18B7A03860123838270470000014087
:1018E000000401400004004000080040000C0040DB
:1018F000001000400014004010B540F225511D4872
:1019000000F0FAF810B31B4800F0B0F9C4B21A485E
:10191000008800F40040C8B91748008800F48040EF
:1019200060B10A2C03D000201349088020E012483F
:10193000008840F400401049088019E00D2C06D1C1
:101940000D48008840F480400B49088010E00A48A8
:101950000088C0F30D0009490C5407480088401C5A
:101960000549088008460088C72801DD0020088056
:1019700010BD00000010014014000020280A0020C3
:1019800010B540F22551164800F0B6F8F8B11448E9
:1019900000F06CF9C4B21348008800F40040B0B9FC
:1019A00010480088B0F5487F12DA00210E48FFF792
:1019B0005EFF0C48008818B901210B48FFF731FF82
:1019C00008490888411C074A118008490C5405E061
:1019D0000448008840F400400249088010BD00001F
:1019E00000480040080000200014004008070020C4
:1019F00021B1828942F40052828104E082894DF64D
:101A0000FF731A408281704710B504463248844201
:101A100008D101211020FFF7D1FC00211020FFF791
:101A2000CDFC57E02D48844209D101214804FFF73D
:101A3000A5FC00214FF40030FFF7A0FC4AE0284845
:101A4000844209D101218804FFF798FC00214FF45A
:101A50008020FFF793FC3DE02248844209D1012118
:101A6000C804FFF78BFC00214FF40020FFF786FC31
:101A700030E01D48844209D101210805FFF77EFCB2
:101A800000214FF48010FFF779FC23E017488442CF
:101A900008D101212020FFF791FC00212020FFF731
:101AA0008DFC17E01248844209D101218807FFF715
:101AB00065FC00214FF08040FFF760FC0AE00D4814
:101AC000844207D101214005FFF758FC0021600541
:101AD000FFF754FC10BD000000100140004400401E
:101AE00000480040004C00400050004000140140FD
:101AF00000780040007C004070B5024600240023BE
:101B00000025002040F66A16B14200D100BFC1F3A3
:101B1000421501F01F03012606FA03F3012D02D13D
:101B20009689334006E0022D02D1168A334001E047
:101B3000968A33400C12012606FA04F416883440C3
:101B400013B10CB1012000E0002070BDF0B50346D8
:101B5000002400260025002040F66A17B94200D173
:101B600000BF1846C1F3421401F01F06012707FA0F
:101B700006F5012C01D10C3004E0022C01D110300B
:101B800000E014301AB107682F43076002E00768CD
:101B9000AF430760F0BD00002DE9FF4705460E4644
:101BA0000024A14600BFA046B08900B100BF2C8A26
:101BB00024F44054F08804432C82AC8941F20C6038
:101BC0008443B08831890843718908430443AC8158
:101BD000AC8A24F44074B0890443AC826846FFF7B1
:101BE000FDFB2048854202D01F48854202D1DDF826
:101BF0000C9001E0DDF80890A88900F4004040B1A5
:101C000009EBC90000EB091031684900B0FBF1F79E
:101C100007E009EBC90000EB091031688900B0FB4F
:101C2000F1F76420B7FBF0F004012009642101FB07
:101C30001078A88900F4004040B1322000EBC800C1
:101C4000B0FBF1F000F00700044308E0322000EBA5
:101C500008106421B0FBF1F000F00F0004432C8168
:101C6000BDE8FF870010014000140140014688884C
:101C7000C0F308007047000070B50025002604E09E
:101C8000681C85B2052000F03DF91548008800F475
:101C9000004008B9642DF3DBFA2D1BDA10480088E8
:101CA000C0F30E05002406E00E48005DB52800D103
:101CB00003E0601C84B2AC42F6DB00BFAC4201D151
:101CC000022608E00749E01C085C08B9032602E088
:101CD000002600E00126002001490880304670BD42
:101CE000080000200807002070B5184C46F2B52007
:101CF000208040F6061060800D20A0800020C4F8EF
:101D000006004FF6FF70C4F80A000020C4F80E0069
:101D10000420A07404F114035A1E1121A01C00F029
:101D20009DF81521204600F0ADF8002505E0FFF7ED
:101D3000A3FF00B903E0681CC5B2062DF7DB00BFA6
:101D4000062D01D1012070BD0020FCE7E803002032
:101D500070B50546164C46F2B520208006206080FE
:101D60001420A0800120A0710020E07120814FF498
:101D70000D60C4F80A00C4F80E5007206082A082EB
:101D80000020E082208304F11B035A1E1821A01CAE
:101D900000F064F81C21204600F074F8C82000F020
:101DA000B1F8284600F0AAFAFFF766FF70BD000000
:101DB000E803002070B505460E460F4CC82D01DA29
:101DC000012070BD46F2B520208040F606006080FC
:101DD0000620A080E58001202081668104F10D03AA
:101DE0005A1E0A21A01C00F039F80E21204600F0EE
:101DF00049F8FFF741FFE4E7E80300202DE9F0414F
:101E000005460E461746144C46F2B520208040F297
:101E1000067060801420A080C4F80650C4F80A60E0
:101E2000A7730020E073207460744FF44D706082DB
:101E30000020A082C4F8160004F11B035A1E1821CA
:101E4000A01C00F00BF81C21204600F01BF8FFF747
:101E500013FFBDE8F0810000E803002070B50446E0
:101E6000002515701D70002009E01578265C3544AA
:101E700015701D78167835441D70451CA8B288422F
:101E8000F3DB70BD10B5024600200CE000BF074B2D
:101E90001B8803F04003002BF9D0135C034C241D76
:101EA0002380431C98B28842F0DB10BD00480040FC
:101EB00000BFFEE730380A2801D201207047002019
:101EC000704700BF7047000010B504466FF0040073
:101ED000FFF790FBE11704EB5171C1F3C701074A0B
:101EE00011701046007800EB4001C1EBC0104FF6B6
:101EF000FF7101EAC0000249088010BD0C000020FB
:101F00000E00002070B504464FF4077094FBF0F00B
:101F1000C6B24FF4077094FBF0F100FB114085B29C
:101F200005E04FF4077000F02FF8701EC6B2002EC7
:101F3000F7D115B1284600F027F870BD0146114AC7
:101F400012784A434FF0E0235A6100229A611A4600
:101F5000126942F001021A6100BF4FF0E0221069DD
:101F600000F001021AB100F48032002AF5D04FF0DF
:101F7000E022126922F001024FF0E0231A610022F0
:101F80009A6170470C0000200146114A12884A43AA
:101F90004FF0E0235A6100229A611A46126942F01A
:101FA00001021A6100BF4FF0E022106900F0010247
:101FB0001AB100F48032002AF5D04FF0E022126905
:101FC00022F001024FF0E0231A6100229A6170476B
:101FD0000E00002000BF054A128802F04002002ACD
:101FE000F9D0C2B2014B9A80704700000010014046
:101FF0004FF000094FF0FF0AC846C3464FF4A060F7
:10200000FFF790F9A820FFF75FFF4FF4E13000F0F1
:102010001FF94FF4164000F071F94FF4164000F02C
:10202000D7F9FEF725FEFEF783FBFEF791FCFEF7DE
:10203000C1FB42F2CF010920FFF760FB01214FF401
:102040007A70FFF7B7FEE8B113E04FF4165000F0D6
:1020500055F94FF41640FFF77BFE4FF4164000F0A1
:102060004DF9012240494148FFF7C8FEFFF73CFE09
:10207000824601214FF47A70FFF79CFE10B1BAF14D
:10208000000FE2D16FE03A48008800F40040E0B170
:1020900037480088C0F30E06002405E03548005D8F
:1020A00035490855601C84B2B442F7DB0020304942
:1020B0000880314908553148FEF76EFDB9F1000F2F
:1020C00003D02D492EA0FEF7D5F84FF001094FF4AB
:1020D000FA7097FBF0F100FB117038B92A480068DC
:1020E00008B9012000E0002027490860781C87B269
:1020F00014210520FEF780FD054640F60A70854252
:1021000007DB08F1010000F0FF0800201F490870FC
:1021100011E0B8F10A0F02DB4FF0010B01E04FF0C4
:102120000008BBF1000F03D000201849087002E03E
:10213000012016490870FA20FFF7E4FE14480078E1
:1021400028B11448007810B11048007858B91048E8
:10215000007840B11048007828B11048007810B1DC
:102160004FF00008C3468EE7A086010040420F00F2
:102170000800002008070020280000204803002055
:102180000D0A25730D0A0000840240420000002061
:1021900005000020060000200700002001000020AC
:1021A00001200649086000200549C1F89C02054944
:1021B00008600549C1F898027047000098824142C2
:1021C00000804142940242420000424200200649FF
:1021D000086001200549C1F89C02002004490860FC
:1021E0000449C1F8980270479882414200804142F8
:1021F000940242420000424200200649086006491B
:10220000C1F89C0201200549086000200449C1F87A
:1022100098027047988241420080414294024242B3
:10222000000042420020064908600649C1F89C02AD
:102230000549086001200549C1F89802704700006F
:102240009882414200804142940242420000424250
:1022500010B588B0044601210846FFF76FF8012148
:102260001020FFF79BF8072209212248FEF764FCA3
:1022700007220A211F48FEF75FFC4FF4C06006905A
:1022800002208DF81C008DF81D0000208DF81E0026
:1022900001208DF81F0006A91648FEF705FC0294E0
:1022A0000020ADF80C00ADF80E00ADF81000ADF850
:1022B00014000C20ADF8120002A90F48FFF76CFCC7
:1022C00001210D48FFF794FB012240F225510A48F5
:1022D000FFF73CFC25208DF8040003208DF8050055
:1022E0008DF8060001208DF8070001A8FEF7DEFF3B
:1022F00008B010BD000002400010014010B588B0C9
:10230000044601210220FFF719F801218804FFF794
:1023100025F82B48FFF778FB07220B212948FEF709
:102320000BFC07220A212748FEF706FC4FF4406009
:10233000059002208DF818008DF8190000208DF806
:102340001A0001208DF81B0005A91E48FEF7ACFB02
:1023500001940020ADF80800ADF80A00ADF80C00BB
:10236000ADF810000C20ADF80E0001A91448FFF7DD
:1023700013FC01211248FFF73BFB012240F22551DB
:102380000F48FFF7E3FB27208DF81C0000208DF895
:102390001D008DF81E0001208DF81F0007A8FEF714
:1023A00085FF42F2CF016320FFF70AFA00200649B9
:1023B000088000210548FFF734FA08B010BD00007E
:1023C00000480040000402400800002000140040C3
:1023D00010B588B0044601210420FEF7AFFF0121AB
:1023E000C804FEF7BBFF2B48FFF70EFB08220B21AA
:1023F0002948FEF7A1FB08220A212748FEF79CFB8B
:102400004FF44060059002208DF818008DF81900F7
:1024100000208DF81A0001208DF81B0005A91E4828
:10242000FEF742FB01940020ADF80800ADF80A0069
:10243000ADF80C00ADF810000C20ADF80E0001A9AD
:102440001448FFF7A9FB01211248FFF7D1FA012236
:1024500040F225511148FFF779FB34208DF81C001C
:1024600000208DF81D008DF81E0001208DF81F0042
:1024700007A8FEF71BFF42F2CF016320FFF7A0F988
:1024800000200749088000210648FFF7CAF908B074
:1024900010BD0000004C0040000802400048004011
:1024A0000A000020001400404FF04070E1EE100AD6
:1024B0007047040000080000000000000002000156
:1024C00000001000E42400080000002028000000A4
:1024D000C40100080C250008280000202811000075
:1024E000E0010008010100010000010000000000FF
:1024F00000000000000000000000000000000102D9
:0C250000030401020304060708090000A0
:040000050800018965
:00000001FF
