:020000040800F2
:100000005007002029020008D10A0008470A00080A
:10001000CD0A0008FD050008571200080000000086
:10002000000000000000000000000000CD0C0008EF
:100030003506000800000000610B0008250E0008CE
:10004000430200084302000843020008430200087C
:100050004302000843020008390600084302000872
:10006000AD060008F906000845070008430200082D
:10007000430200084302000843020008430200084C
:10008000430200084302000843020008430200083C
:10009000430200084302000843020008430200082C
:1000A000430200084302000843020008430200081C
:1000B00043020008910E00084302000843020008B2
:1000C00043020008430200084302000843020008FC
:1000D00043020008391000084302000843020008E8
:1000E00043020008430200084302000843020008DC
:1000F00043020008430200084302000843020008CC
:1001000043020008430200084302000843020008BB
:1001100043020008430200084302000843020008AB
:10012000430200084302000843020008430200089B
:10013000430200084302000843020008430200088B
:10014000430200084302000843020008430200087B
:10015000430200084302000843020008430200086B
:10016000430200084302000843020008430200085B
:10017000430200084302000843020008430200084B
:10018000430200084302000800F002F800F03CF8C7
:100190000AA090E8000C82448344AAF10107DA45E2
:1001A00001D100F031F8AFF2090EBAE80F0013F0F8
:1001B000010F18BFFB1A43F0010318473814000061
:1001C00058140000103A24BF78C878C1FAD85207F2
:1001D00024BF30C830C144BF04680C6070470000C1
:1001E0000023002400250026103A28BF78C1FBD840
:1001F000520728BF30C148BF0B6070471FB501F0E0
:10020000F3F91FBD10B510BD00F06EF81146FFF7F1
:10021000F5FF01F0B9F800F0A0F803B4FFF7F2FF22
:1002200003BC01F01AF8000009488047094800475C
:10023000FEE7FEE7FEE7FEE7FEE7FEE7FEE7FEE796
:10024000FEE7FEE704480549054A064B70470000F3
:10025000290E0008890100085001002050070020E5
:100260005003002050030020704700000FB40449E1
:1002700010B503AA029800F009F810BC5DF814FB51
:100280000C0000207047704770477047074B70B5EF
:100290000D467B4400F011F80446284600F020F893
:1002A00010B14FF0FF3070BD204670BDD710000078
:1002B00001694A1C02610878704700B58FB0CDE92A
:1002C00001310021059105497944CDE9031011461A
:1002D000684600F02EF80FB000BD0000E5FFFFFFFC
:1002E000007B00F080007047754600F03FF8AE4696
:1002F00005006946534620F00700854618B020B532
:10030000FFF7A0FFBDE820404FF000064FF00007C8
:100310004FF000084FF0000B21F00701AC46ACE8AD
:10032000C009ACE8C009ACE8C009ACE8C0098D461A
:1003300070472DE9F04106460024D6E90170F568C2
:100340008046304603E04146B847641C3046A84723
:100350000028F8D12046BDE8F08110B50446AFF37F
:1003600000802046BDE81040FFF757BF00487047A7
:10037000EC00002021B1826842F00102826003E0BB
:10038000826822F001028260704700000021084A62
:100390001168084A1140D0E900231A4383681A43C0
:1003A000C3681A431143044AC2F80413704700009B
:1003B00004230140E030FCFF002001400146C86CEE
:1003C00080B270470246002013680B400BB1012039
:1003D00000E000207047000030B5024600200023F6
:1003E0005068104C20400D790C6844EA05242043E5
:1003F000506090680C4C2040D1E903542C438D6828
:100400002C434D7944EA450420439060D06A20F49F
:1004100070000C7D641EE4B2234340EA0350D062B6
:1004200030BD0000FFFEFFFCFDF7FFC0F0B5044645
:100430000D4600200021092D11DDE068A5F10A0616
:1004400006EB4607072606FA07F18843A5F10A06D8
:1004500006EB460603FA06F10843E0600CE020696B
:1004600005EB4507072606FA07F1884305EB450625
:1004700003FA06F108432061072A0FDA606B561E63
:1004800006EB86071F2606FA07F18843561E06EB81
:10049000860605FA06F10843606322E00D2A0FDAAA
:1004A000206BD61F06EB86071F2606FA07F1884346
:1004B000D61F06EB860605FA06F10843206310E016
:1004C000E06AA2F10D0606EB86071F2606FA07F181
:1004D0008843A2F10D0606EB860605FA06F10843ED
:1004E000E062F0BD816841F080418160704710B5E5
:1004F00000F0CCFF40F6C41000F0ECFE00F0DCFF92
:1005000040F6C41000F0E6FE00F0ECFF40F6C41028
:1005100000F0E0FE00F0FCFF40F6C41000F0DAFE50
:1005200010BD000000B58DB00121084600F01AFB97
:100530000121080200F036FB20200B9003208DF8EB
:10054000300000208DF833000BA9154800F0D4F9D5
:100550000121080200F036FB00214FF4807000F00A
:1005600031FB002007900A9009904FF480300890EA
:1005700007A8FFF70BFF002001908DF808008DF809
:1005800009000390059001208DF8180001A9054885
:10059000FFF722FF01210348FFF7ECFE0DB000BD7D
:1005A00000000240002001401CB50121282000F07D
:1005B000D9FAC020009001208DF8040000208DF8A9
:1005C000060003208DF8050001208DF8070069461C
:1005D000084800F091F9602000906946064800F054
:1005E0008BF9C021034800F0FBF96021024800F0BC
:1005F000F7F91CBD000C02400010024000BFFEE7EE
:1006000010B500F085FF40F6C41000F063FE00F066
:1006100069FF40F6C41000F05DFE00F04DFF40F6AB
:10062000C41000F057FE00F031FF40F6C41000F097
:1006300051FE10BD7047000010B50A2000F02EFEDC
:1006400001210F4800F0C3F9012815D10D480078A9
:1006500008B9012000E000200A4908700846007827
:10066000094908700748007818B108A0FFF7FEFD97
:1006700002E00AA0FFF7FAFD012000F0EDF810BD3E
:100680000000024002000020050000206D6F746F22
:10069000722073746172740D0A0000006D6F746FC4
:1006A000722073746F700D0A0000000010B50A20EC
:1006B00000F0F4FD04210B4800F089F970B9012025
:1006C000094908700020094908700748007808495E
:1006D0000870064800780749087000BF042000F041
:1006E000BBF810BD001002400300002004000020F1
:1006F000060000200700002010B50A2000F0CEFD03
:1007000008210B4800F063F970B90020094908700E
:100710000120094908700748007808490870064810
:1007200000780749087000BF082000F095F810BD58
:1007300000100240030000200400002006000020FA
:100740000700002010B50A2000F0A8FD102108487D
:1007500000F03DF938B90748006808B9012000E009
:10076000002004490860102000F076F810BD000059
:1007700000100240840240420EB500F067F90121EA
:10078000880300F00FFA0221042000F0A1FA0321EF
:10079000042000F09DFA0421084600F099FA002197
:1007A000084600F095FA0120009000208DF8040022
:1007B00008208DF8050001208DF80600684600F03D
:1007C00051F81C20009000208DF804000C208DF8BA
:1007D000050001208DF80600684600F043F8062069
:1007E0008DF8080000208DF8090002208DF80A001D
:1007F00001208DF80B0002A800F06CF908208DF89C
:10080000080003208DF8090002208DF80A0001205D
:100810008DF80B0002A800F05DF909208DF80800A2
:1008200002208DF809008DF80A0001208DF80B00D8
:1008300002A800F04FF90A208DF8080001208DF879
:10084000090002208DF80A0001208DF80B0002A893
:1008500000F040F90EBD000001490860704700003B
:10086000143C0140002123498279002A3AD00A46EB
:10087000126803689A430B461A600A1D12680368DF
:100880009A430B1D1A60027911440A6803681A43DF
:100890000A60184A0832126803689A43154B0833F5
:1008A0001A601A1D126803689A43124B0C331A60BF
:1008B0004279102A0ED11A1F126803681A430D4B91
:1008C00008331A601A1D126803681A43094B0C3367
:1008D0001A600DE00749427911440A6803681A4317
:1008E0000A6005E0027911440A6803689A430A60C5
:1008F00070470000003C0140F0B50A46002100238B
:10090000002400BF3DE0012505FA01F3156805EA62
:1009100003049C4234D105684F000326BE40B54312
:10092000056015794E00B5400668354305601579B8
:10093000012D02D01579022D16D185684F000326AE
:10094000BE40B543856055794E00B5408668354355
:100950008560456801268E40B543456045689679B7
:100960008E40B6B235434560C5684F000326BE4091
:10097000B543C560D5794E00B540C6683543C560FE
:10098000491C1029BFD3F0BDF0B5002300244D074A
:10099000ED0E02FA05F3CE1000F1200555F82650B1
:1009A0004E07F70E0F26BE40B543CF1000F12006CC
:1009B00046F82750CE1000F1200555F8265045EA9C
:1009C0000304CE1000F1200545F82640F0BD024694
:1009D000002013690B400BB1012000E0002070479C
:1009E000418370470183704710B5044607230122F5
:1009F00021460848FFF71AFD0648FFF773FD00BFC0
:100A000002210448FFF7DEFC0028F9D00148FFF777
:100A1000D5FC10BD002001402DE9F04107460C46F1
:100A20000025002608E03846FFF7DEFF05440520D4
:100A300000F034FC701CC6B2A642F4DBB5FBF4F047
:100A400080B2BDE8F08100BFFEE700001CB50121C7
:100A5000112000F087F81C20009000208DF8040081
:100A600003208DF8050001208DF80700694606482F
:100A7000FFF742FF0120009002208DF80700694631
:100A80000248FFF739FF1CBD001002400000024081
:100A90001CB50121084600F065F8022000900120F5
:100AA0008DF8040000208DF8060003208DF8050065
:100AB00001208DF8070069460348FFF71DFF02215A
:100AC0000148FFF78FFF1CBD0000024000BFFEE79A
:100AD0007047000070B5002100230F22C4781CB3BA
:100AE000174C246804F4E064C4F5E064C4F30721FF
:100AF000C1F10404E3B20A4144789C40E1B2847835
:100B0000144021430C07210E0E4C057861550478E2
:100B100004F01F050124AC4005786D11AD0005F10E
:100B2000E025C5F8004109E0047804F01F05012420
:100B3000AC40054D0678761145F8264070BD0000A2
:100B40000CED00E000E400E080E100E00249014338
:100B5000024A1160704700000000FA050CED00E049
:100B60007047000029B1064A12680243044B1A601C
:100B700004E0034A12688243014B1A607047000088
:100B80003038024029B1064A12680243044B1A6009
:100B900004E0034A12688243014B1A607047000068
:100BA0004038024029B1064A12680243044B1A60D9
:100BB00004E0034A12688243014B1A607047000048
:100BC0004438024029B1064A12680243044B1A60B5
:100BD00004E0034A12688243014B1A607047000028
:100BE00024380240F0B5002100220024022500260E
:100BF0000223324F3F6807F00C0121B1042905D0D0
:100C0000082937D105E02E4F076036E02D4F0760E9
:100C100033E02A4F3F1F3F68C7F38056274F3F1FDF
:100C20003F6807F03F036EB1264FB7FBF3F7DFF8DD
:100C30008CC0ACF1040CDCF800C0CCF3881C07FBC2
:100C40000CF40CE01E4FB7FBF3F7DFF870C0ACF10B
:100C5000040CDCF800C0CCF3881C07FB0CF4174F25
:100C60003F1F3F68C7F301477F1C7D00B4FBF5F7CA
:100C7000076002E0124F076000BF00BF0F4F3F68E0
:100C800007F0F0010909104F7A5C0768D740476008
:100C90000A4F3F6807F4E051890A0B4F7A5C4768B6
:100CA000D7408760054F3F6807F46041490B064F06
:100CB0007A5C4768D740C760F0BD00000838024042
:100CC0000024F40000127A00120000207047000097
:100CD00030B500228B071C0F0F2303FA04F20B4BD5
:100CE0008C1053F824309343084C8D1044F8253071
:100CF00023468C1053F824308C07240F00FA04F498
:100D00002343024C8D1044F8253030BD0838014093
:100D10000CB50020019000903448006840F4803009
:100D20003249086000BF3148006800F4003000908C
:100D30000198401C0190009818B90198B0F5A04F97
:100D4000F1D12A48006800F4003010B10120009071
:100D500001E0002000900098012846D1234840304F
:100D6000006840F080502149403108602048006808
:100D700040F440401E4908601C48083000681B4988
:100D8000083108600846006840F4004008600846E2
:100D9000006840F4A05008601648091F0860081F4A
:100DA000006840F08070091F086000BF0F480068AD
:100DB00000F000700028F9D040F205700E4908607C
:100DC0000A480830006820F003000849083108602C
:100DD0000846006840F00200086000BF0348083081
:100DE000006800F00C000828F8D10CBD0038024063
:100DF0000070004008544007003C0240042808D11D
:100E00004FF0E021096941F004014FF0E022116147
:100E100007E04FF0E021096921F004014FF0E022E2
:100E2000116170477047000010B51548006840F424
:100E30007000134908601348006840F00100114930
:100E4000086000200F49083108600E4800680E490C
:100E500008400C4908600D48091D0860081F00681B
:100E600020F48020091F0860002006490C3108602A
:100E7000FFF74EFF4FF0006001498039086010BD58
:100E800088ED00E000380240FFFFF6FE103000243D
:100E900010B50121144800F072F801281ED1134842
:100EA000006808B9012000E00020104908601048DF
:100EB000007840B10F48007828B10F48007810B191
:100EC000FFF79EFB0AE00A48007838B10B4800782B
:100ED00020B10B48007808B1FFF709FB0121024857
:100EE00000F03EF810BD00000004004084024042C3
:100EF0000500002006000020000000200700002060
:100F0000010000207FB505460C4601210220FFF7B5
:100F100039FE0295ADF804400020ADF80600ADF8AA
:100F20000C0001A90D4800F045F8012211460B48BC
:100F300000F036F80121094800F015F81D208DF861
:100F4000000001208DF8010003208DF8020001202F
:100F50008DF803006846FFF7BDFD7FBD000400402B
:100F6000CA430282704721B1028842F00102028026
:100F700004E002884FF6FE731A400280704730B5D5
:100F80000246002000230024158A05EA0103958902
:100F900005EA010413B10CB1012000E0002030BDCE
:100FA0001AB183890B43838102E083898B43838158
:100FB0007047000000220288184B98420ED0184B50
:100FC00098420BD0B0F1804F08D0164B984205D014
:100FD000154B984202D0154B984204D14FF68F73AF
:100FE0001A404B881A43124B984207D0114B984233
:100FF00004D04FF6FF431A400B891A4302804B6816
:10100000C3620B880385054B984202D0044B98427B
:1010100001D18B7A0386012383827047000001404F
:10102000000401400004004000080040000C0040A3
:10103000001000400014004010B540F225511D483A
:1010400000F04AF810B31B4800F000F9C4B21A4887
:10105000008800F40040C8B91748008800F48040B8
:1010600060B10A2C03D000201349088020E0124808
:10107000008840F400401049088019E00D2C06D18A
:101080000D48008840F480400B49088010E00A4871
:101090000088C0F30D0009490C5407480088401C23
:1010A0000549088008460088C72801DD002008801F
:1010B00010BD00000010014010000020240000209E
:1010C00021B1828942F40052828104E082894DF686
:1010D000FF731A408281704770B5024600240023D6
:1010E0000025002040F66A16B14200D100BFC1F3CE
:1010F000421501F01F03012606FA03F3012D02D168
:101100009689334006E0022D02D1168A334001E071
:10111000968A33400C12012606FA04F416883440ED
:1011200013B10CB1012000E0002070BDF0B5034602
:10113000002400260025002040F66A17B94200D19D
:1011400000BF1846C1F3421401F01F06012707FA39
:1011500006F5012C01D10C3004E0022C01D1103035
:1011600000E014301AB107682F43076002E00768F7
:10117000AF430760F0BD00002DE9FF4705460E466E
:101180000024A14600BFA046B08900B100BF2C8A50
:1011900024F44054F08804432C82AC8941F20C6062
:1011A0008443B08831890843718908430443AC8182
:1011B000AC8A24F44074B0890443AC826846FFF7DB
:1011C00011FD2048854202D01F48854202D1DDF83A
:1011D0000C9001E0DDF80890A88900F4004040B1CF
:1011E00009EBC90000EB091031684900B0FBF1F7C9
:1011F00007E009EBC90000EB091031688900B0FB7A
:10120000F1F76420B7FBF0F004012009642101FB31
:101210001078A88900F4004040B1322000EBC800EB
:10122000B0FBF1F000F00700044308E0322000EBCF
:1012300008106421B0FBF1F000F00F0004432C8192
:10124000BDE8FF8700100140001401400146888876
:10125000C0F30800704700BFFEE700BF7047000002
:1012600010B504466FF00400FFF7C8FDE11704EB6A
:101270005171C1F3C701074A11701046007800EBA5
:101280004001C1EBC0104FF6FF7101EAC0000249F6
:10129000088010BD080000200A00002070B5044638
:1012A0004FF4077094FBF0F0C6B24FF4077094FB54
:1012B000F0F100FB114085B205E04FF4077000F03B
:1012C0002FF8701EC6B2002EF7D115B1284600F0D7
:1012D00027F870BD0146114A12784A434FF0E023C7
:1012E0005A6100229A611A46126942F001021A619B
:1012F00000BF4FF0E022106900F001021AB100F4C3
:101300008032002AF5D04FF0E022126922F001026B
:101310004FF0E0231A6100229A6170470800002014
:101320000146114A12884A434FF0E0235A610022D5
:101330009A611A46126942F001021A6100BF4FF029
:10134000E022106900F001021AB100F48032002A94
:10135000F5D04FF0E022126922F001024FF0E023B5
:101360001A6100229A6170470A00002000BF054AF6
:10137000128802F04002002AF9D0C2B2014B9A80D2
:101380007047000000100140002500264FF4A060C7
:10139000FFF7DCFBA820FFF763FF4FF4E13000F01C
:1013A000CDF8FFF775FBFFF7BDF8FFF7E5F9FFF79D
:1013B000FBF842F2CF010920FFF7A4FD3FE0142122
:1013C0000520FFF729FB044640F60A70844208DB3B
:1013D000681CC5B200201A4908701AA0FEF746FF23
:1013E0000FE00A2D04DB1BA0FEF740FF012600E002
:1013F00000251EB100201249087002E001201049AA
:101400000870FA20FFF74AFF1548007848B11548E0
:10141000007830B10A48007818B113A0FEF726FF13
:101420000DE00F48007850B11248007838B11248EA
:10143000007820B111A0FEF719FF00250026BEE7B5
:1014400000000020707265737320686967680D0A78
:1014500000000000616C72656164790D0A00000093
:1014600005000020060000206D6F74657220637710
:101470000D0A000007000020010000206D6F746F4E
:10148000725F616E746963770D0A0000012006497E
:10149000086000200549C1F89C020549086005491B
:1014A000C1F8980270470000988241420080414292
:1014B0009402424200004242002006490860012096
:1014C0000549C1F89C020020044908600449C1F89C
:1014D0009802704798824142008041429402424201
:1014E000000042420020064908600649C1F89C02FB
:1014F00001200549086000200449C1F8980270479E
:10150000988241420080414294024242000042429D
:101510000020064908600649C1F89C020549086098
:1015200001200549C1F898027047000098824142A5
:1015300000804142940242420000424210B588B00D
:10154000044601210846FFF70DFB01211020FFF79B
:1015500029FB072209212248FFF716FA07220A2150
:101560001F48FFF711FA4FF4C060069002208DF873
:101570001C008DF81D0000208DF81E0001208DF844
:101580001F0006A91648FFF7B7F902940020ADF82E
:101590000C00ADF80E00ADF81000ADF814000C20F2
:1015A000ADF8120002A90F48FFF7E6FD01210D4832
:1015B000FFF786FD012240F225510A48FFF7B6FDEC
:1015C00025208DF8040003208DF805008DF8060015
:1015D00001208DF8070001A8FFF77CFA08B010BDC4
:1015E00000000240001001404FF04070E1EE100A90
:1015F00070470000141600080000002024000000BE
:10160000C401000838160008240000202C07000040
:10161000E0010008010100010000010000000000DD
:1016200000000000000000000000010203040102AD
:0816300003040607080900008D
:040000050800018965
:00000001FF
